S00F000073616E64626F782E7372656326
S113000045C0000053C0000051C000004FC00000B4
S11300104DC000004BC0000049C0000047C00000B4
S113002045C0000043C0000041C000003FC00000C4
S11300303DC000003BC0000039C0000037C00000D4
S113004035C0000033C0000031C000002FC00000E4
S11300502DC000002BC0000029C0000027C00000F4
S113006025C0000023C0000021C000001FC0000004
S11300701DC000001BC0000019C0000017C0000014
S113008015C0000013C0000011C0000011241FBEE1
S1130090CFEFD0E4DEBFCDBF21E0A0E0B1E001C0EE
S11300A01D92A838B207E1F73CD304C5A9CFCF937A
S11300B0DF93CDB7DEB789EB90E0FC01108288EBCB
S11300C090E020E2FC0120830000DF91CF910895AD
S11300D0CF93DF9300D0CDB7DEB78A838CEB90E06B
S11300E024EAFC01208300008CEB90E0FC01808179
S11300F08823D4F789EB90E0FC018081887F898391
S11301008981883019F08981803141F58BEB90E049
S11301102A81FC0120838CEB90E024E8FC012083FD
S113012000008CEB90E0FC0180818823D4F7898166
S1130130803219F08981883599F48CEB90E024E9B8
S1130140FC01208300008CEB90E0FC018081882F6F
S113015090E080719927892BB1F701C00000BECFD0
S1130160000000000F900F90DF91CF910895CF937E
S1130170DF93CDB7DEB78CEB90E024E9FC0120835C
S113018000008CEB90E0FC018081882F90E080716E
S11301909927892BB1F70000DF91CF910895CF9370
S11301A0DF9300D0CDB7DEB78A838BEB90E02A8152
S11301B0FC0120838CEB90E024E8FC012083000008
S11301C08CEB90E0FC0180818823D4F789EB90E0EC
S11301D0FC018081887F89838981883211F081E0E4
S11301E001C080E00F900F90DF91CF910895CF93DD
S11301F0DF93CDB7DEB78CEB90E024ECFC012083D9
S113020000008CEB90E0FC0180818823D4F78BEB19
S113021090E0FC018081DF91CF910895CF93DF932B
S1130220CDB7DEB78CEB90E024E8FC01208300001E
S11302308CEB90E0FC0180818823D4F78BEB90E079
S1130240FC018081DF91CF910895CF93DF93CDB7E7
S1130250DEB729970FB6F894DEBF0FBECDBF9F83DC
S11302608E837987688719821A821B821C821D8279
S113027019821DC08981882F90E0880F991F2885D5
S11302803985820F931F2981222F30E02F5F3F4F42
S1130290220F331F48855985240F351FF90120810A
S11302A03181FC013183208389818F5F8983898136
S11302B0853100F38885998588962E813F81FC01DC
S11302C03183208319821FC08981882F90E0880F91
S11302D0991F28853985820F931FFC0180819181A4
S11302E0092E000CAA0BBB0B2A813B814C815D813A
S11302F0820F931FA41FB51F8A839B83AC83BD8386
S113030089818F5F898389818531F0F28A819B811C
S1130310AC81BD8125E130E040E050E0BC01CD017D
S113032084D3DA01C90129960FB6F894DEBF0FBE53
S1130330CDBFDF91CF9108950F931F93CF93DF9398
S1130340CDB7DEB727970FB6F894DEBF0FBECDBF8B
S11303501982CE01029646E050E060E070E0A3D33B
S113036082E5B6DE80E01BDF02DF83E5B1DE1982C1
S11303701DC08981853061F48981082F10E04EDF2A
S1130380282FCE010296800F911FFC0120830BC001
S11303908981082F10E02BDF282FCE010296800FD1
S11303A0911FFC01208389818F5F89838981863035
S11303B000F3DDDE19821BC08981882F90E029813A
S11303C0222F30E0AE014E5F5F4F240F351FF9013D
S11303D0308127E1232747E1420F9E012E5F3F4FE3
S11303E0820F931FFC01408389818F5F89838981F8
S11303F0863010F38A81809300018B818093010100
S11304008F81882F90E08170992721E0892B09F052
S113041020E0822F809302018F81882F90E08270E8
S113042099279595879521E0892B09F020E0822F63
S1130430809303018C81882F90E09C01220F331F4D
S1130440220F331F8F81882F90E083709927820FAA
S1130450931F90930501809304018D81882F90E070
S11304609C01220F331F220F331F8F81882F90E0AE
S113047083709927820F931F90930701809306013D
S11304808E81882F90E09C01220F331F220F331F8F
S11304908F81882F90E083709927820F931F909308
S11304A0090180930801809104019091050164E39E
S11304B071E0CBDE909305018093040180910601E5
S11304C0909107016AE071E0C0DE90930701809388
S11304D0060180910801909109016EE571E0B5DE95
S11304E09093090180930801000027960FB6F894B1
S11304F0DEBF0FBECDBFDF91CF911F910F91089545
S1130500CF93DF93CDB7DEB7A0970FB6F894DEBFD5
S11305100FBECDBF82E290E0FC011082C8DD80E016
S113052090E0A8ECB2E489839A83AB83BC832BEA82
S11305303AEA4AEA5EE369817A818B819C8112D22C
S1130540DC01CB018D839E83AF83B88720E030E04C
S113055040E85EE369817A818B819C8103D2DC016E
S1130560CB0189879A87AB87BC8720E030E040E8DD
S11305705FE36D817E818F819885E3D088231CF4AD
S113058081E08D87A7C020E03FEF4FE757E46985FE
S11305907A858B859C85E2D118160CF074C020E016
S11305A030E04AE754E469817A818B819C81CDD023
S11305B0DC01CB018E879F87A88BB98B20E030E0CC
S11305C04AE753E46E857F8588899989CBD1DC011C
S11305D0CB018A8B9B8BAC8BBD8B20E030E040E859
S11305E05FE36A897B898C899D89ABD088232CF44D
S11305F081E090E09F8B8E8B3BC020E03FEF4FE784
S113060057E46A897B898C899D89A8D118163CF5A1
S113061020E030E040E251E46E857F858889998945
S1130620A1D1DC01CB01BC01CD01F7D0DC01CB01B0
S11306309F8B8E8B0FC089E190E0998F888F888D76
S1130640998D0197F1F7998F888F8E899F890197EA
S11306509F8B8E8B8E899F89892B69F73BC06A8912
S11306607B898C899D89D9D0DC01CB019F8B8E8BB2
S11306708E899F899B8F8A8F8A8D9B8D0197F1F735
S11306809B8F8A8F27C020E030E04FE753E46D81D1
S11306907E818F81988562D11816A4F469857A8544
S11306A08B859C85BAD0DC01CB019D8F8C8F8C8D82
S11306B09D8D9F8F8E8F8E8D9F8D0197F1F79F8FCC
S11306C08E8F0EC06D817E818F819885A6D0DC01CE
S11306D0CB018D878D8588A388A18A95F1F788A39E
S11306E082E5F6DC82E290E029EB30E0F90120813A
S11306F0FC01208380EF53DD85E551DD38DD82E5A3
S1130700E7DC8BEF4CDD80E04ADD31DD15DE0000F7
S1130710A0960FB6F894DEBF0FBECDBFDF91CF9188
S11307200895CF93DF93CDB7DEB781E290E02FEF4A
S1130730FC01208382E290E0FC011082E1DEFCDD1A
S1130740FECF97D008F481E008950CD0CDC0C5D079
S113075040F0BCD030F021F45F3F19F0AEC051112D
S1130760F7C0B1C0D2D098F39923C9F35523B1F39C
S1130770951B550BBB27AA2762177307840738F00C
S11307809F5F5F4F220F331F441FAA1FA9F333D06B
S11307900E2E3AF0E0E830D091505040E695001C1F
S11307A0CAF729D0FE2F27D0660F771F881FBB1FDB
S11307B0261737074807AB07B0E809F0BB0B802DB5
S11307C0BF01FF2793585F4F2AF09E3F510568F001
S11307D074C0BEC05F3FECF3983EDCF3869577951A
S11307E06795B795F7959F5FC9F7880F911D969503
S11307F0879597F90895E1E0660F771F881FBB1F5F
S1130800621773078407BA0720F0621B730B840B0B
S1130810BA0BEE1F88F7E09508957FD088F09F57B4
S113082090F0B92F9927B751A0F0D1F0660F771F38
S1130830881F991F1AF0BA95C9F712C0B13081F018
S113084086D0B1E0089583C0672F782F8827B85FDA
S113085039F0B93FCCF3869577956795B395D9F779
S11308603EF490958095709561957F4F8F4F9F4F83
S11308700895990F0008550FAA0BE0E8FEEF16162D
S11308801706E807F907C0F012161306E407F50780
S113089098F0621B730B840B950B39F40A2661F0F4
S11308A0232B242B252B21F408950A2609F4A14097
S11308B0A6958FEF811D811D089597F99F6780E8A4
S11308C070E060E008959FEF80EC089500240A949E
S11308D01616170618060906089500240A94121617
S11308E01306140605060895092E0394000C11F44A
S11308F0882352F0BB0F40F4BF2B11F460FF04C0F7
S11309006F5F7F4F8F4F9F4F089557FD9058440F4F
S1130910551F59F05F3F71F04795880F97FB991F5A
S113092061F09F3F79F08795089512161306140617
S1130930551FF2CF4695F1DF08C0161617061806A4
S1130940991FF1CF86957105610508940895E8947F
S1130950BB2766277727CB0197F908958ADF08F428
S11309608FEF08950BD0C0CFB1DF28F0B6DF18F0B9
S1130970952309F0A2CFA7CF1124EACFC6DFA0F3B5
S1130980959FD1F3950F50E0551F629FF001729F20
S1130990BB27F00DB11D639FAA27F00DB11DAA1F3F
S11309A0649F6627B00DA11D661F829F2227B00D8C
S11309B0A11D621F739FB00DA11D621F839FA00D17
S11309C0611D221F749F3327A00D611D231F849F67
S11309D0600D211D822F762F6A2F11249F575040BE
S11309E08AF0E1F088234AF0EE0FFF1FBB1F661F59
S11309F0771F881F91505040A9F79E3F510570F012
S1130A005CCFA6CF5F3FECF3983EDCF386957795F9
S1130A106795B795F795E7959F5FC1F7FE2B880F0C
S1130A20911D9695879597F90895052E97FB16F4D1
S1130A3000940FD057FD05D014D007FC02D046F423
S1130A4008C050954095309521953F4F4F4F5F4FCB
S1130A50089590958095709561957F4F8F4F9F4F26
S1130A600895A1E21A2EAA1BBB1BFD010DC0AA1FEB
S1130A70BB1FEE1FFF1FA217B307E407F50720F003
S1130A80A21BB30BE40BF50B661F771F881F991F7E
S1130A901A9469F760957095809590959B01AC01C7
S1130AA0BD01CF010895DC0101C06D934150504058
S10B0AB0E0F70895F894FFCF6C
S9030000FC
