S01800006473696C763032325F70726F6A6563742E7372656300
S1130000C5C00000D3C00000D1C00000CFC00000B4
S1130010CDC00000CBC00000C9C00000C7C00000B4
S1130020C5C00000C3C00000C1C00000BFC00000C4
S1130030BDC00000BBC00000B9C00000B7C00000D4
S1130040B5C00000B3C00000B1C00000AFC00000E4
S1130050ADC00000ABC00000A9C00000A7C00000F4
S1130060A5C00000A3C00000A1C000009FC0000004
S11300709DC000009BC0000099C0000097C0000014
S113008095C0000093C0000091C0000000858F0A55
S11300909B1E1491B3363CB928ADA722E3666CE9E4
S11300A078FDF77250D5DF5ACB4E44C143C6CC49D4
S11300B0D85D57D2F0757FFA6BEEE461A0252FAAC4
S11300C03BBEB43113969C19880D07828603098CB4
S11300D01D98921735B0BA3FAE2B21A465E0EA6FA4
S11300E0FE7B71F4D65359DC4DC8C247C5404ACF94
S11300F05EDBD15476F3F97CED6862E726A3A92C84
S1130100BD3832B795101A9F0E8B8104890C068373
S113011012979D183ABFB530A1242EAB6AEFE56063
S1130120F1747EFBD95C56D342C7CD48CA4F45C053
S113013051D4DE5B79FCF673E2676DE829ACA62343
S1130140B2373DB89A1F159001848E0B0F8A800533
S113015094111B9EBC3933B627A2A82DEC6963E623
S113016077F2F87D5FDAD055C4414BCE4CC9C34613
S1130170D75258DDFF7A70F564E1EB6EAF2A20A503
S113018034B1BB3E1C9993168702088D11241FBEFF
S1130190CFEFD0E4DEBFCDBF21E0A0E0B1E001C0ED
S11301A01D92A838B207E1F7FED359C729CFCF93E0
S11301B0DF93CDB7DEB781EC90E021EC30E0F901BC
S11301C020812861FC01208384EC90E023E3FC017E
S11301D0208385EC90E0FC0110820000DF91CF9138
S11301E00895CF93DF931F92CDB7DEB789830000C4
S11301F080EC90E0FC018081882F90E08072992748
S1130200892BB1F386EC90E02981FC012083000066
S11302100F90DF91CF910895CF93DF93CDB7DEB7E1
S113022089EB90E0FC01108288EB90E028E8FC0167
S113023020830000DF91CF910895CF93DF9300D006
S1130240CDB7DEB78A838CEB90E024EAFC012083EF
S113025000008CEB90E0FC0180818823D4F789EBCB
S113026090E0FC018081887F89838981883019F03E
S11302708981803171F58BEB90E02A81FC01208328
S11302808CEB90E024E8FC01208300008CEB90E0F0
S1130290FC0180818823D4F789EB90E0FC01808104
S11302A0887F89838981803219F08981883599F41E
S11302B08CEB90E024E9FC01208300008CEB90E0BF
S11302C0FC018081882F90E080719927892BB1F7F8
S11302D001C00000B8CF000000000F900F90DF9124
S11302E0CF910895CF93DF93CDB7DEB78CEB90E039
S11302F024E9FC01208300008CEB90E0FC01808168
S1130300882F90E080719927892BB1F70000DF9145
S1130310CF910895CF93DF9300D0CDB7DEB78A8312
S11303208BEB90E02A81FC0120838CEB90E024E8A5
S1130330FC01208300008CEB90E0FC018081882389
S1130340D4F789EB90E0FC018081887F89838981DF
S1130350883211F081E001C080E00F900F90DF91AE
S1130360CF910895CF93DF93CDB7DEB78CEB90E0B8
S113037024ECFC01208300008CEB90E0FC018081E4
S11303808823D4F78BEB90E0FC018081DF91CF913F
S11303900895CF93DF93CDB7DEB78CEB90E024E8DC
S11303A0FC01208300008CEB90E0FC018081882319
S11303B0D4F78BEB90E0FC018081DF91CF9108951D
S11303C0CF93DF9300D0CDB7DEB780910001882FA3
S11303D090E09A83898389819A818A38910594F47B
S11303E029813A81C9019695982F882797958795F1
S11303F0821B930B29E830E0B901C5D5CB019A8360
S1130400898312C089819A81895891099695982F78
S113041088279795879526E730E0B901B4D5CB01B5
S113042082589F4F9A83898389819A818F57910932
S11304300F900F90DF91CF910895CF93DF9300D069
S1130440CDB7DEB780910101882F90E09A8389832C
S113045089819A818A38910594F429813A81C90164
S11304609695982F882797958795821B930B29E853
S113047030E0B90188D5CB019A83898312C0898180
S11304809A81895891099695982F882797958795E9
S113049026E730E0B90177D5CB0182589F4F9A8384
S11304A0898389819A818F5791090F900F90DF91E9
S11304B0CF910895CF93DF93CDB7DEB7809102013A
S11304C0DF91CF910895CF93DF93CDB7DEB78091BD
S11304D00301DF91CF910895CF93DF93CDB7DEB7BA
S11304E080910401909105018F509240DF91CF914A
S11304F00895CF93DF93CDB7DEB780910601909135
S1130500070183519240DF91CF910895CF93DF93F8
S1130510CDB7DEB7809108019091090182519240D4
S1130520DF91CF910895CF93DF93CDB7DEB72997AD
S11305300FB6F894DEBF0FBECDBF9F838E8379873D
S1130540688719821A821B821C821D8219821DC02F
S11305508981882F90E0880F991F28853985820F1B
S1130560931F2981222F30E02F5F3F4F220F331F2B
S113057048855985240F351FF90120813181FC01FB
S11305803183208389818F5F89838981853100F359
S11305908885998588962E813F81FC01318320834B
S11305A019821FC08981882F90E0880F991F2885A0
S11305B03985820F931FFC0180819181092E000CE3
S11305C0AA0BBB0B2A813B814C815D81820F931F57
S11305D0A41FB51F8A839B83AC83BD8389818F5FEE
S11305E0898389818531F0F28A819B81AC81BD81C7
S11305F025E130E040E050E0BC01CD01D7D4DA0180
S1130600C90129960FB6F894DEBF0FBECDBFDF91A6
S1130610CF9108950F931F93CF93DF93CDB7DEB798
S113062027970FB6F894DEBF0FBECDBF1982CE0157
S1130630029646E050E060E070E00AD584EAFDDD11
S113064080E068DE4FDE85EAF8DD19821DC089810D
S1130650853061F48981082F10E09BDE282FCE01BC
S11306600296800F911FFC0120830BC08981082F03
S113067010E078DE282FCE010296800F911FFC0136
S1130680208389818F5F89838981863000F32ADE04
S11306908A81809300018B81809301018F81882F4F
S11306A090E08170992721E0892B09F020E0822FC6
S11306B0809302018F81882F90E08270992795950D
S11306C0879521E0892B09F020E0822F8093030194
S11306D08C81882F90E09C01220F331F220F331F3F
S11306E08F81882F90E083709927820F931F9093B6
S11306F00501809304018D81882F90E09C01220FD5
S1130700331F220F331F8F81882F90E08370992726
S1130710820F931F90930701809306018E81882F87
S113072090E09C01220F331F220F331F8F81882FEB
S113073090E083709927820F931F9093090180930F
S11307400801809104019091050164E371E0EBDEFE
S11307509093050180930401809106019091070113
S11307606AE071E0E0DE90930701809306018091D6
S11307700801909109016EE571E0D5DE90930901BD
S113078080930801000027960FB6F894DEBF0FBED1
S1130790CDBFDF91CF911F910F910895CF93DF9338
S11307A0CDB7DEB7A0970FB6F894DEBF0FBECDBFAE
S11307B033DD80E090E0A8ECB2E489839A83AB83D4
S11307C0BC832BEA3AEA4AEA5EE369817A818B8147
S11307D09C8176D3DC01CB018D839E83AF83B88764
S11307E020E030E040E85EE369817A818B819C817E
S11307F067D3DC01CB0189879A87AB87BC8720E06C
S113080030E040E85FE36D817E818F81988547D237
S113081088231CF481E08D87A7C020E03FEF4FE7D9
S113082057E469857A858B859C8546D318160CF028
S113083074C020E030E04AE754E469817A818B8116
S11308409C8131D2DC01CB018E879F87A88BB98B29
S113085020E030E04AE753E46E857F8588899989F2
S11308602FD3DC01CB018A8B9B8BAC8BBD8B20E01F
S113087030E040E85FE36A897B898C899D890FD2E7
S113088088232CF481E090E09F8B8E8B3BC020E08A
S11308903FEF4FE757E46A897B898C899D890CD3A4
S11308A018163CF520E030E040E251E46E857F8587
S11308B08889998905D3DC01CB01BC01CD015BD2C8
S11308C0DC01CB019F8B8E8B0FC089E190E0998F67
S11308D0888F888D998D0197F1F7998F888F8E89EC
S11308E09F8901979F8B8E8B8E899F89892B69F7AE
S11308F03BC06A897B898C899D893DD2DC01CB010F
S11309009F8B8E8B8E899F899B8F8A8F8A8D9B8DDF
S11309100197F1F79B8F8A8F27C020E030E04FE7E3
S113092053E46D817E818F819885C6D21816A4F414
S113093069857A858B859C851ED2DC01CB019D8FD0
S11309408C8F8C8D9D8D9F8F8E8F8E8D9F8D01971B
S1130950F1F79F8F8E8F0EC06D817E818F81988578
S11309600AD2DC01CB018D878D8588A388A18A9565
S1130970F1F788A384EA61DC80EFCCDC85E5CADC8E
S1130980B1DC84EA5ADC8BEFC5DC80E0C3DCAADC92
S113099041DE0000A0960FB6F894DEBF0FBECDBFB7
S11309A0DF91CF910895CF93DF93CDB7DEB7ED9765
S11309B00FB6F894DEBF0FBECDBFF9DBEFDE78943F
S11309C029DE78DD89837FDD8A83FADC9C838B834F
S11309D034DD9E838D8380DD98878F838ADD9A87BB
S11309E0898794DD9C878B871D869D8589818927CE
S11309F0882F90E084579F4F9F878E878E859F8591
S1130A00FC0125913491CF01398B288B9F878E87E8
S1130A10888999898D879D858A818927882F90E087
S1130A2084579F4F9B8B8A8B8A899B89FC012591D4
S1130A303491CF013D8B2C8B9B8B8A8B8C899D8928
S1130A408D878D85282F30E08B819C819927822783
S1130A50932784579F4F9F8B8E8B8E899F89FC0190
S1130A6025913491CF01398F288F9F8B8E8B888D60
S1130A70998D8D878D85882F90E02B813C81232F44
S1130A8033278227932784579F4F9B8F8A8F8A8D82
S1130A909B8DFC0125913491CF013D8F2C8F9B8F31
S1130AA08A8F8C8D9D8D8D878D85282F30E08D814B
S1130AB09E8199278227932784579F4F9F8F8E8FDC
S1130AC08E8D9F8DFC0125913491CF0139A328A3EC
S1130AD09F8F8E8F88A199A18D878D85882F90E017
S1130AE02D813E81232F33278227932784579F4FBD
S1130AF09BA38AA38AA19BA1FC0125913491CF01D8
S1130B003DA32CA39BA38AA38CA19DA18D878D8536
S1130B10282F30E08F81988599278227932784573F
S1130B209F4F9FA38EA38EA19FA1FC012591349179
S1130B30CF0139A728A79FA38EA388A599A58D8740
S1130B408D85882F90E02F813885232F33278227A6
S1130B50932784579F4F9BA78AA78AA59BA5FC012F
S1130B6025913491CF013DA72CA79BA78AA78CA5DB
S1130B709DA58D878D85282F30E089859A859927B5
S1130B808227932784579F4F9FA78EA78EA59FA543
S1130B90FC0125913491CF0139AB28AB9FA78EA7D7
S1130BA088A999A98D878D85882F90E029853A8514
S1130BB0232F33278227932784579F4F9BAB8AABDE
S1130BC08AA99BA9FC0125913491CF013DAB2CABA3
S1130BD09BAB8AAB8CA99DA98D878D85282F30E08E
S1130BE08B859C8599278227932784579F4F9FAB9A
S1130BF08EAB8EA99FA9FC0125913491CF0139AF09
S1130C0028AF9FAB8EAB88AD99AD8D878D85882F2E
S1130C1090E02B853C85232F332782279327845705
S1130C209F4F9BAF8AAF8AAD9BADFC012591349158
S1130C30CF013DAF2CAF9BAF8AAF8CAD9DAD8D87FF
S1130C408981CFDA8A81CDDA8B81CBDA8B819C8161
S1130C50892F990F990BC5DA8D81C3DA8D819E8115
S1130C60892F990F990BBDDA8F81BBDA8F81988513
S1130C70892F990F990BB5DA8985B3DA89859A8515
S1130C80892F990F990BADDA8B85ABDA8B859C850F
S1130C90892F990F990BA5DA8D85A3DA91CE97D078
S1130CA008F481E008950CD0CDC0C5D040F0BCD08C
S1130CB030F021F45F3F19F0AEC05111F7C0B1C05C
S1130CC0D2D098F39923C9F35523B1F3951B550B4F
S1130CD0BB27AA2762177307840738F09F5F5F4F0B
S1130CE0220F331F441FAA1FA9F333D00E2E3AF04C
S1130CF0E0E830D091505040E695001CCAF729D066
S1130D00FE2F27D0660F771F881FBB1F26173707B4
S1130D104807AB07B0E809F0BB0B802DBF01FF27E4
S1130D2093585F4F2AF09E3F510568F074C0BEC0CF
S1130D305F3FECF3983EDCF3869577956795B7951E
S1130D40F7959F5FC9F7880F911D9695879597F939
S1130D500895E1E0660F771F881FBB1F62177307B2
S1130D608407BA0720F0621B730B840BBA0BEE1FC7
S1130D7088F7E09508957FD088F09F5790F0B92FB9
S1130D809927B751A0F0D1F0660F771F881F991FDC
S1130D901AF0BA95C9F712C0B13081F086D0B1E02B
S1130DA0089583C0672F782F8827B85F39F0B93F3B
S1130DB0CCF3869577956795B395D9F73EF49095DE
S1130DC08095709561957F4F8F4F9F4F0895990F30
S1130DD00008550FAA0BE0E8FEEF16161706E80701
S1130DE0F907C0F012161306E407F50798F0621B22
S1130DF0730B840B950B39F40A2661F0232B242BF7
S1130E00252B21F408950A2609F4A140A6958FEF15
S1130E10811D811D089597F99F6780E870E060E067
S1130E2008959FEF80EC089500240A94161617067F
S1130E3018060906089500240A94121613061406C7
S1130E4005060895092E0394000C11F4882352F02A
S1130E50BB0F40F4BF2B11F460FF04C06F5F7F4FE2
S1130E608F4F9F4F089557FD9058440F551F59F0C9
S1130E705F3F71F04795880F97FB991F61F09F3F83
S1130E8079F087950895121613061406551FF2CFAC
S1130E904695F1DF08C0161617061806991FF1CFFC
S1130EA086957105610508940895E894BB27662723
S1130EB07727CB0197F908958ADF08F48FEF089517
S1130EC00BD0C0CFB1DF28F0B6DF18F0952309F0BE
S1130ED0A2CFA7CF1124EACFC6DFA0F3959FD1F309
S1130EE0950F50E0551F629FF001729FBB27F00DD4
S1130EF0B11D639FAA27F00DB11DAA1F649F662729
S1130F00B00DA11D661F829F2227B00DA11D621F77
S1130F10739FB00DA11D621F839FA00D611D221F31
S1130F20749F3327A00D611D231F849F600D211D15
S1130F30822F762F6A2F11249F5750408AF0E1F0B8
S1130F4088234AF0EE0FFF1FBB1F661F771F881F01
S1130F5091505040A9F79E3F510570F05CCFA6CF49
S1130F605F3FECF3983EDCF3869577956795B795EC
S1130F70F795E7959F5FC1F7FE2B880F911D969516
S1130F80879597F9089597FB072E16F4009406D0D9
S1130F9077FD08D027D007FC05D03EF490958195C5
S1130FA09F4F0895709561957F4F0895052E97FB87
S1130FB016F400940FD057FD05D028D007FC02D0BA
S1130FC046F408C050954095309521953F4F4F4FBA
S1130FD05F4F089590958095709561957F4F8F4FE1
S1130FE09F4F0895AA1BBB1B51E107C0AA1FBB1F3B
S1130FF0A617B70710F0A61BB70B881F991F5A95A1
S1131000A9F780959095BC01CD010895A1E21A2E0F
S1131010AA1BBB1BFD010DC0AA1FBB1FEE1FFF1F98
S1131020A217B307E407F50720F0A21BB30BE40BE8
S1131030F50B661F771F881F991F1A9469F760952F
S11310407095809590959B01AC01BD01CF010895E9
S1131050DC0101C06D9341505040E0F70895F894CD
S1051060FFCFBC
S9030000FC
