S00D000055534152542E7372656388
S11300004CC0000068C0000066C0000064C000006E
S113001062C0000060C000005EC000005CC0000060
S11300205AC0000058C0000056C0000054C0000070
S113003052C0000002C100004EC000004CC00000CD
S11300404AC0000048C0000046C0000044C0000090
S113005042C0000040C000003EC000003CC00000A0
S11300603AC0000038C0000036C0000034C00000B0
S113007032C0000030C000002EC000002CC00000C0
S11300802AC0000028C0000026C000001C08660822
S1130090B008FA0844098E09DD0911241FBECFEF08
S11300A0D0E4DEBFCDBF13E0A0E0B1E0ECEFF9E1B6
S11300B000E00BBF02C007900D92A030B107D9F742
S11300C025E0A0E0B3E001C01D92A83BB207E1F730
S11300D015D10C94FC0C94CFCF93DF93CDB7DEB73E
S11300E081EC90E021EC30E0F90120812861FC01F1
S11300F0208384EC90E023E3FC01208385EC90E0F2
S1130100FC0110820000DF91CF910895CF93DF931B
S1130110CDB7DEB780EC90E0FC0180818072DF9186
S1130120CF910895CF93DF931F92CDB7DEB7898324
S1130130000080EC90E0FC018081882F90E08072C8
S11301409927892BB1F386EC90E02981FC01208367
S113015000000F90DF91CF910895CF93DF9300D0EB
S113016000D0CDB7DEB769837A838B839C83898182
S11301709A81AB81BC818093040190930501A09383
S11301800601B09307018091040190910501A091AB
S11301900601B09107018093010390930203A09399
S11301A00303B093040300000F900F900F900F907F
S11301B0DF91CF910895CF93DF93CDB7DEB781E878
S11301C090E02BE0FC01208388E890E02DE730E00C
S11301D0FC01318320838FE690E022E0FC01208340
S11301E084E890E0FC0111821082809104019091D6
S11301F00501A0910601B09107018093010390933A
S11302000203A0930303B09304038FE590E02FE56A
S113021030E0F90120812068FC0120830000DF9197
S1130220CF910895CF93DF93CDB7DEB781E080936C
S113023000030000DF91CF9108951F920F92009068
S11302405F000F92112400905B000F922F933F9355
S11302504F935F936F937F938F939F93AF93BF93CA
S1130260EF93FF93CF93DF93CDB7DEB78091010374
S113027090910203A0910303B09104030197A10993
S1130280B1098093010390930203A0930303B093F5
S113029004038091010390910203A0910303B091A0
S11302A00403892B8A2B8B2B89F4BCDF80910401F6
S11302B090910501A0910601B0910701809301037B
S11302C090930203A0930303B09304030000DF910F
S11302D0CF91FF91EF91BF91AF919F918F917F91BA
S11302E06F915F914F913F912F910F9000925B001E
S11302F00F9000925F000F901F9018950F931F931B
S1130300CF93DF931F92CDB7DEB781E290E0FC017B
S1130310108282E290E02FEFFC01208387E290E0DC
S11303202FEFFC01208388E290E0FC011082D4DEF0
S11303301092340580910D0190910E01A0910F014E
S1130340B09110018093350590933605A09337053D
S1130350B09338051092390510923A0510923B0576
S113036010923C058FE393E090933E0580933D0506
S113037010923F058091110190911201A0911301F7
S1130380B09114018093400590934105A0934205D8
S1130390B09343051092440510924505109246050A
S11303A01092470580EE93E09093490580934805A9
S11303B010924A058091150190911601A0911701A0
S11303C0B091180180934B0590934C05A0934D0573
S11303D0B0934E0510924F0510925005109251059E
S11303E01092520582EB94E0909354058093530548
S11303F0109255058091190190911A01A0911B0149
S1130400B0911C018093560590935705A09358050D
S1130410B093590510925A0510925B0510925C0531
S113042010925D058FE09CE090935F0580935E05DC
S11304301092600580911D0190911E01A0911F01F1
S1130440B09120018093610590936205A0936305A8
S1130450B0936405109265051092660510926705C5
S1130460109268058EE996E090936A058093690579
S113047010926B058091210190912201A09123019A
S1130480B091240180936C0590936D05A0936E0543
S1130490B0936F0510927005109271051092720559
S11304A0109273058CED9BE0909375058093740511
S11304B0B5D0D0D18091090190910A01A0910B018E
S11304C0B0910C01BC01CD0148DE75DE809123059D
S11304D0882F90E00E94B60C198292C08981282F3F
S11304E030E04BE0429FC001439F900D1124875C94
S11304F09A4FFC0120813181428153818981682F87
S113050070E0EBE0E69FC001E79F900D11248B5C47
S11305109A4FFC0180819181A281B3812817390708
S11305204A075B07F0F18981082F10E08981282FA1
S113053030E04BE0429FC001439F900D1124835C47
S11305409A4FFC01208131818981482F50E06BE072
S1130550649FC001659F900D11248C5C9A4FFC012F
S11305608081082E000C990BF9010995382F2BE096
S1130570209FC001219F900D11248C5C9A4FFC0197
S113058030838981282F30E04BE0429FC001439F94
S1130590900D1124875C9A4FFC0110821182128203
S11305A013828981682F70E08981282F30E04BE025
S11305B0429FC001439F900D1124875C9A4FFC0118
S11305C020813181428153818091090190910A01F6
S11305D0A0910B01B0910C01820F931FA41FB51FB2
S11305E04BE0469F9001479F300D1124275C3A4F02
S11305F0F90180839183A283B38389818F5F898387
S1130600809108019981981708F468CF00008091BF
S113061000038823E1F31092000358CFCF93DF93B4
S1130620CDB7DEB7109223051092B5051092B70529
S11306301092280581E08093810510929E0582E046
S113064080939D0581E08093B60510929A051092DF
S11306502505109224051092270510922605109264
S113066099051092980510929C0510929B05109282
S11306701F0510921E050000DF91CF910895CF93BE
S1130680DF93CDB7DEB780912605909127058230A0
S11306909105C1F18330910530F4009759F0019729
S11306A009F444C05EC08330910509F453C0049733
S11306B041F057C084E090E090932705809326058D
S11306C054C082E290E0FC018081813039F483E0FF
S11306D090E0909327058093260547C082E290E03E
S11306E0FC018081823039F481E090E09093270509
S11306F0809326053AC084E090E090932705809388
S1130700260533C082E290E0FC018081813039F417
S113071083E090E0909327058093260526C082E02D
S113072090E090932705809326051FC082E290E015
S1130730FC018081823039F484E090E090932705B5
S11307408093260512C081E090E090932705809362
S113075026050BC084E090E090932705809326053E
S113076004C01092270510922605809126059091C9
S113077027058230910579F08330910518F40197AB
S113078071F017C08330910571F0049709F011C01E
S113079010929A050EC081E080939A050AC082E007
S11307A080939A0506C083E080939A0537DF52D080
S11307B000008091260590912705DF91CF9108953F
S11307C0CF93DF93CDB7DEB78091240590912505B3
S11307D0009719F0019709F127C098DC8823B1F03C
S11307E086E0A0DC37D0892B51F081E08093B605F8
S11307F081E090E0909325058093240519C0109220
S1130800B605109225051092240512C01092B60563
S113081010922505109224050BC081E090E090937E
S113082025058093240504C0109225051092240503
S11308308091240590912505019709F004C038D0D2
S11308408093B60500008091240590912505DF91E1
S1130850CF910895CF93DF9300D0CDB7DEB719823F
S11308601DC01A8215C08981282F30E08A81882F03
S113087090E022953295307F3227207F3227820FF5
S1130880931F8B5F9C4FFC0110828A818F5F8A8348
S11308908A81803140F389818F5F898389818032A5
S11308A000F381E090E00F900F90DF91CF910895D5
S11308B0CF93DF9300D01F92CDB7DEB727DC882318
S11308C011F081E02FDC19821A8240C01B8238C0EB
S11308D08A81282F30E08B81882F90E022953295F1
S11308E0307F3227207F3227820F931F8B5F9C4FEC
S11308F0FC018081882341F08981882F90E0880F52
S1130900991F8160898306C08981882F90E0880FB0
S1130910991F89838B81882F90E00196877099278E
S1130920892B59F4F3DB882341F08FEFFBDB88E25A
S113093090E02981FC01208319828B818F5F8B8356
S11309408B81803128F28A818F5F8A838A81803209
S113095008F4BCCF81E090E00F900F900F90DF91EE
S1130960CF910895CF93DF93CDB7DEB780919805EB
S1130970909199058230910509F18330910528F40D
S1130980009749F0019799F040C08330910571F1C7
S1130990049799F13AC081E090E09093990580938F
S11309A0980582E080939D0510929E052EC082E0FA
S11309B090E0909399058093980527C080918105D4
S11309C0813049F483E090E09093990580939805F1
S11309D01092810519C0809181058823A9F484E0CF
S11309E090E090939905809398050EC081E090E083
S11309F0909399058093980508C081E090E09093C6
S1130A0099058093980501C0000080919805909104
S1130A1099058230910571F08330910518F401979E
S1130A2039F00FC08330910539F0049749F009C0BB
S1130A30C0D107C0DED005C0C8D21092810501C064
S1130A4000008091980590919905DF91CF910895C8
S1130A50CF93DF9300D0CDB7DEB719825BC01A8283
S1130A6052C08981282F30E08A81882F90E0229516
S1130A703295307F3227207F3227820F931F8B5F7E
S1130A809C4FFC0180818823D9F18981282F30E093
S1130A908A81882F90E022953295307F3227207FFB
S1130AA03227820F931F8B5F9C4FFC018081813022
S1130AB039F18981282F30E08A81882F90E02295AE
S1130AC03295307F3227207F3227820F931F8B5F2E
S1130AD09C4FFC018081833099F08981282F30E07C
S1130AE08A81882F90E022953295307F3227207FAB
S1130AF03227820F931F8B5F9C4F21E0FC012083E0
S1130B008A818F5F8A838A81803108F4AACF8981A0
S1130B108F5F898389818B3108F4A1CF00000F9006
S1130B200F90DF91CF910895CF93DF9300D0CDB78D
S1130B30DEB7198254C01A824BC08981282F30E055
S1130B408A81882F90E022953295307F3227207F4A
S1130B503227820F931F8B5F9C4FFC01808185306D
S1130B6041F18981282F30E08A81882F90E02295F5
S1130B703295307F3227207F3227820F931F8B5F7D
S1130B809C4FFC0180818430A1F08981282F30E0C2
S1130B908A81882F90E022953295307F3227207FFA
S1130BA03227820F931F8B5F9C4FFC01808187301B
S1130BB061F49A8189818150692F54D4823009F07B
S1130BC047DF8BE1898380E18A838A818F5F8A830F
S1130BD08A81803108F4B1CF89818F5F89838981CB
S1130BE08B3108F4A8CF00000F900F90DF91CF91C4
S1130BF00895CF93DF9300D01F92CDB7DEB71B8249
S1130C00198230C01A8227C08981282F30E08A8156
S1130C10882F90E022953295307F3227207F32272B
S1130C20820F931F8B5F9C4FFC018081882369F0A6
S1130C3081E08B838A818F3059F480919E058F5F88
S1130C4080939E05898118D003C01B8280E18A832A
S1130C508A818F5F8A838A818031B0F21B82898185
S1130C608F5F898389818B3168F200000F900F9028
S1130C700F90DF91CF910895CF93DF9300D01F920F
S1130C80CDB7DEB78B838B81815089834CC01A82A8
S1130C9043C08981882341F18981282F30E08A81EA
S1130CA0882F90E04981442F50E0BA016F5F7F4F55
S1130CB04A81442F50E062957295707F7627607F59
S1130CC07627460F571F4B5F5C4FFA0140812295F0
S1130CD03295307F3227207F3227820F931F8B5F1C
S1130CE09C4FFC01408315C08981813091F4898136
S1130CF0282F30E08A81882F90E022953295307F2A
S1130D003227207F3227820F931F8B5F9C4FFC0179
S1130D1010828A818F5F8A838A81803108F4B9CFF7
S1130D208981815089838981882309F0B0CF0000AB
S1130D300F900F900F90DF91CF910895CF93DF9391
S1130D40CDB7DEB780911E0590911F05009719F06D
S1130D50019751F010C01092230581E090E0909328
S1130D601F0580931E050BC081E090E090931F0542
S1130D7080931E0504C010921F0510921E058091D9
S1130D801E0590911F05019709F00CC08091230561
S1130D90803811F410922305809123058F5F80938E
S1130DA02305000080911E0590911F05DF91CF91CE
S1130DB00895CF93DF93CDB7DEB782E290E0FC01D4
S1130DC08081803139F480912805815080932805F1
S1130DD012D11CC082E290E0FC018081803239F49F
S1130DE0809128058F5F8093280505D10FC082E28A
S1130DF090E0FC018081843011F47AD007C082E253
S1130E0090E0FC018081883009F405D081E090E015
S1130E10DF91CF910895CF93DF9300D000D0CDB769
S1130E20DEB78FEF89838FEF8A831B8250C01C82C9
S1130E3047C08B81282F30E08C81882F90E0229549
S1130E403295307F3227207F3227820F931F8B5FAA
S1130E509C4FFC018081853041F18B81282F30E04B
S1130E608C81882F90E022953295307F3227207F25
S1130E703227820F931F8B5F9C4FFC01808184304B
S1130E80A1F08B81282F30E08C81882F90E022956F
S1130E903295307F3227207F3227820F931F8B5F5A
S1130EA09C4FFC018081873041F48B8189838C8144
S1130EB08A8380E28B8380E18C838C818F5F8C8337
S1130EC08C81803108F4B5CF8B818F5F8B838B81CC
S1130ED0803208F4ACCF8A818F5F682F8981C2D2B7
S1130EE000000F900F900F900F90DF91CF91089515
S1130EF0CF93DF9300D000D0CDB7DEB78FEF8983D7
S1130F008FEF8A831B8250C01C8247C08B81282F9D
S1130F1030E08C81882F90E022953295307F322703
S1130F20207F3227820F931F8B5F9C4FFC018081AF
S1130F30853041F18B81282F30E08C81882F90E01F
S1130F4022953295307F3227207F3227820F931FDC
S1130F508B5F9C4FFC0180818430A1F08B81282F12
S1130F6030E08C81882F90E022953295307F3227B3
S1130F70207F3227820F931F8B5F9C4FFC0180815F
S1130F80873041F48B8189838C818A8380E28B83CF
S1130F9080E18C838C818F5F8C838C81803108F419
S1130FA0B5CF8B818F5F8B838B81803208F4ACCF7C
S1130FB08A818150682F898155D200000F900F904B
S1130FC00F900F90DF91CF910895CF93DF93CDB71A
S1130FD0DEB710922805C7D427E030E0B9012AD43F
S1130FE08F5F8093220507D060E080E03BD2000051
S1130FF0DF91CF9108951F93CF93DF93CDB7DEB7E1
S11310002E970FB6F894DEBF0FBECDBF8091220598
S1131010882F90E0092E000CAA0BBB0B41E050E096
S113102026E030E0841B950B2817390708F40FC21B
S11310308A5B9F4FFC0133C480912805882311F4F7
S11310401092280519823DC01A8235C08981282F43
S113105030E08A81682F70E080912805A82FB0E0E5
S11310608981482F50E08A81E82FF0E0CA01880F77
S1131070991F880F991F840F951F19E11A9FA001CA
S11310801B9F500D1124840F951F8E0F9F1F8B5D86
S11310909E4FFC014081C901880F991F880F991F39
S11310A0820F931F860F971F8B5F9A4FFC0140831B
S11310B08A818F5F8A838A81853040F289818F5F3C
S11310C089838981853008F4BFCFC1C18091280507
S11310D0833011F4109228051B823DC01C8235C058
S11310E08B81282F30E08C81682F70E08091280557
S11310F0A82FB0E08B81482F50E08C81E82FF0E0DE
S1131100CA01880F991F880F991F840F951F19E131
S11311101A9FA0011B9F500D1124840F951F8E0F41
S11311209F1F825C9E4FFC014081C901880F991F5B
S1131130880F991F820F931F860F971F8B5F9A4FFB
S1131140FC0140838C818F5F8C838C81853040F2DD
S11311508B818F5F8B838B81853008F4BFCF77C100
S113116080912805833011F4109228051D823DC01A
S11311701E8235C08D81282F30E08E81682F70E06B
S113118080912805A82FB0E08D81482F50E08E81F2
S1131190E82FF0E0CA01880F991F880F991F840F68
S11311A0951F19E11A9FA0011B9F500D1124840F54
S11311B0951F8E0F9F1F8E559E4FFC014081C901C4
S11311C0880F991F880F991F820F931F860F971FEF
S11311D08B5F9A4FFC0140838E818F5F8E838E815B
S11311E0853040F28D818F5F8D838D81853008F449
S11311F0BFCF2DC180912805813011F410922805AC
S11312001F823DC0188635C08F81282F30E0888525
S1131210682F70E080912805A82FB0E08F81482FB7
S113122050E08885E82FF0E0CA01880F991F880FE5
S1131230991F840F951F19E11A9FA0011B9F500D40
S11312401124840F951F8E0F9F1F8A5F9D4FFC01F1
S11312504081C901880F991F880F991F820F931F1E
S1131260860F971F8B5F9A4FFC01408388858F5FA1
S113127088878885853040F28F818F5F8F838F8147
S1131280853008F4BFCFE3C080912805813011F484
S11312901092280519863DC01A8635C08985282FE5
S11312A030E08A85682F70E080912805A82FB0E08F
S11312B08985482F50E08A85E82FF0E0CA01880F1D
S11312C0991F880F991F840F951F19E11A9FA00178
S11312D01B9F500D1124840F951F8E0F9F1F885C38
S11312E09D4FFC014081C901880F991F880F991FE8
S11312F0820F931F860F971F8B5F9A4FFC014083C9
S11313008A858F5F8A878A85853040F289858F5FD9
S113131089878985853008F4BFCF99C080912805D5
S1131320813011F4109228051B8642C01C863AC0F5
S11313308B85282F30E08C85682F70E080912805FC
S1131340A82FB0E08B85482F50E08C85E82FF0E083
S1131350CA01880F991F880F991F840F951F19E1DF
S11313601A9FA0011B9F500D1124840F951F8E0FEF
S11313709F1F86599D4FFC014081C901880F991F09
S1131380880F991F820F931F860F971F8B5F9A4FA9
S1131390FC01408388E290E02B85FC0120838C854E
S11313A08F5F8C878C85853018F28B858F5F8B8758
S11313B08B85853008F4BACF4AC0809128058330E4
S11313C011F4109228051D863DC01E8635C08D85FA
S11313D0282F30E08E85682F70E080912805A82F93
S11313E0B0E08D85482F50E08E85E82FF0E0CA01EB
S11313F0880F991F880F991F840F951F19E11A9F51
S1131400A0011B9F500D1124840F951F8E0F9F1F49
S113141084569D4FFC014081C901880F991F880F94
S1131420991F820F931F860F971F8B5F9A4FFC01A2
S113143040838E858F5F8E878E85853040F28D85C3
S11314408F5F8D878D85853008F4BFCF0000000045
S11314502E960FB6F894DEBF0FBECDBFDF91CF91AD
S11314601F910895CF93DF93CDB7DEB729970FB6B9
S1131470F894DEBF0FBECDBF8887698782E0898379
S11314801A8279C01B8270C08885282F880F330B7D
S11314908A81882F90E0280F391F8985482F880F6B
S11314A0550B8B81882F90E0840F951F22953295E0
S11314B0307F3227207F3227820F931F8B5F9C4F10
S11314C0FC018081813089F58A81282F30E08B816D
S11314D0482F50E0C901880F991F880F991F820F68
S11314E0931F840F951F8B5F9A4FFC01808182307C
S11314F0A9F08A81282F30E08B81482F50E0C90160
S1131500880F991F880F991F820F931F840F951FAF
S11315108B5F9A4FFC018081853039F481E08983A7
S113152085E08A8385E08B831CC08885282F880FFB
S1131530330B8A81882F90E0820F931F4B975CF4C2
S11315408985282F880F330B8B81882F90E0820F99
S1131550931F409734F081E0898385E08A8385E096
S11315608B838B818F5F8B838B81853008F48CCF49
S11315708A818F5F8A838A81853008F483CF898149
S1131580813009F40FC11C8282C01D8279C08C8114
S1131590282F30E08D81882F90E022953295307F7E
S11315A03227207F3227820F931F8B5F9C4FFC01D1
S11315B08081863041F18C81282F30E08D81882F05
S11315C090E022953295307F3227207F3227820F98
S11315D0931F8B5F9C4FFC0180818430A1F08C8130
S11315E0282F30E08D81882F90E022953295307F2E
S11315F03227207F3227820F931F8B5F9C4FFC0181
S11316008081853099F48C81282F30E08D81882F5A
S113161090E022953295307F3227207F3227820F47
S1131620931F8B5F9C4FFC01108227C08C81282F55
S113163030E08D81882F90E022953295307F3227DB
S1131640207F3227820F931F8B5F9C4FFC01808188
S1131650873099F48C81282F30E08D81882F90E099
S113166022953295307F3227207F3227820F931FB5
S11316708B5F9C4F21E0FC0120838D818F5F8D83E4
S11316808D81803108F483CF8C818F5F8C838C8132
S1131690803208F47ACF8885282F880F330B898508
S11316A0082E000C990B22953295307F3227207F2B
S11316B03227820F931F8B5F9C4FFC018081813006
S11316C0B1F48885282F880F330B8985082E000CE8
S11316D0990B22953295307F3227207F3227820F53
S11316E0931F8B5F9C4F27E0FC01208316C08885E5
S11316F0282F880F330B8985082E000C990B4091F5
S1131700050522953295307F3227207F3227820FBC
S1131710931F8B5F9C4FFC0140831E823FC01F823E
S113172037C08E81282F30E08F81482F50E0C901C7
S1131730880F991F880F991F820F931F840F951F7D
S11317408B5F9A4FFC0180818230F9F48885282FC1
S1131750880F330B8E81882F90E0280F391F8985DD
S1131760482F880F550B8F81882F90E0840F951F89
S113177022953295307F3227207F3227820F931FA4
S11317808B5F9C4F26E0FC0120838F818F5F8F83CA
S11317908F81853030F28E818F5F8E838E8185308C
S11317A008F4BDCF898129960FB6F894DEBF0FBE29
S11317B0CDBFDF91CF910895CF93DF93CDB7DEB73F
S11317C08091200590912105009719F0019741F02F
S11317D00EC081E090E090932105809320050CC019
S11317E081E090E0909321058093200505C010923C
S11317F0210510922005000080912005909121057B
S1131800009729F0019709F003C08ED901C00000A8
S11318108091200590912105DF91CF910895CF9378
S1131820DF93CDB7DEB780919B0590919C05DF9146
S1131830CF91089597FB072E16F4009406D077FDF8
S113184008D036D007FC05D03EF4909581959F4F83
S11318500895709561957F4F0895A1E21A2EAA1BF1
S1131860BB1BFD010DC0AA1FBB1FEE1FFF1FA2174C
S1131870B307E407F50720F0A21BB30BE40BF50B49
S1131880661F771F881F991F1A9469F760957095D2
S1131890809590959B01AC01BD01CF010895EE0F99
S11318A0FF1F0024001C0BBE0790F691E02D099445
S11318B0AA1BBB1B51E107C0AA1FBB1FA617B70772
S11318C010F0A61BB70B881F991F5A95A9F780958E
S11318D09095BC01CD0108958F929F92AF92BF92D3
S11318E0CF92DF92EF92FF92CF93DF93EC01688166
S11318F079818A819B81611571058105910521F4A6
S113190064E279ED8BE597E02DE133EF41E050E0BF
S113191038D049015A019B01AC01A7EAB1E44DD08A
S11319206B017C01ACEEB4EFA501940152D0DC0153
S1131930CB018C0D9D1DAE1DBF1DB7FF03C00197CC
S1131940A109B04888839983AA83BB839F77DF91D9
S1131950CF91FF90EF90DF90CF90BF90AF909F908A
S11319608F900895B9CF80E091E0B6CFA0E0B0E0C9
S11319708093000190930101A0930201B0930301AD
S11319800895052E97FB16F400940FD057FD05D04B
S113199064DF07FC02D046F408C0509540953095AA
S11319A021953F4F4F4F5F4F0895909580957095C7
S11319B061957F4F8F4F9F4F08950FD0A59F900D36
S11319C0B49F900DA49F800D911D11240895B7FF1D
S11319D0F4CFF3DF821B930B0895A29FB001B39F52
S11319E0C001A39F700D811D1124911DB29F700D24
S10F19F0811D1124911D0895F894FFCF6F
S11319FC010000000100000006F4010000F40100E5
S1131A0C00F4010000F4010000F4010000E80300FC
S1131A1C00F40100000502000000020200000000B6
S1131A2C00000000000000000000000000000500A1
S1131A3C0000000202020000000000000000000090
S1131A4C000000000000000402000000000200007E
S1131A5C0002020000000000000000000000000072
S1131A6C050202000000000200000000000000005B
S1131A7C000000000000000000050200000002004D
S1131A8C0000000200000000000000000000000044
S1131A9C000004000200000202020000000000002A
S1131AAC000000000000000000000005020000001F
S1131ABC0002000000000200000000000000000012
S1131ACC00000000050202000002000000000000FB
S1131ADC00000000000000000000000000050000F1
S1131AEC00000200000000020200000000000000E0
S1131AFC00000000000005020000000002020000CB
S1131B0C00000000000000000000000000000004C1
S1131B1C02000000020200000002000000000000AD
S1131B2C0000000000000000040202000002020099
S1131B3C0000000000000000000000000000000095
S1131B4C000500000000020200000000020000007A
S1131B5C000000000000000000000502020200006A
S1131B6C0000000000000000000000000000000065
S1131B7C000000050000000002000000000200004C
S1131B8C000002000000000000000000040200003D
S1131B9C000202020000000000000000000000002F
S1131BAC000000000004020000000202000000001B
S1131BBC020000000000000000000000000005020C
S1131BCC0200000002000000000000000000000001
S1131BDC00000000000000050000000002020000EC
S1131BEC00020000000000000000000000000000E3
S9030000FC
