:1000000045C0000060C000005EC000005CC0000091
:100010005AC0000058C0000056C0000054C0000084
:1000200052C0000050C000004EC000004CC0000094
:100030004AC0000048C0000046C0000044C00000A4
:1000400042C0000040C000003EC000003CC00000B4
:100050003AC0000038C0000036C0000034C00000C4
:1000600032C0000030C000002EC000002CC00000D4
:100070002AC0000028C0000026C0000024C00000E4
:1000800022C0000020C000001EC0000011241FBEBE
:10009000CFEFD0E4DEBFCDBF11E0A0E0B1E0EEEAEB
:1000A000F1E000E00BBF02C007900D92A030B10755
:1000B000D9F721E0A0E0B1E001C01D92A030B20765
:1000C000E1F743D072C09CCFCF93DF93CDB7DEB7BB
:1000D00081EC90E021EC30E0F90120812861FC0105
:1000E000208384EC90E023E3FC01208385EC90E006
:1000F000FC0110820000DF91CF910895CF93DF9330
:10010000CDB7DEB780EC90E0FC0180818072DF919A
:10011000CF910895CF93DF931F92CDB7DEB7898338
:10012000000080EC90E0FC018081882F90E08072DC
:100130009927892BB1F386EC90E02981FC0120837B
:1001400000000F90DF91CF910895CF93DF93CDB74B
:10015000DEB781E290E0FC01108282E290E02FEFB6
:10016000FC01208387E290E02FEFFC01208388E2EE
:1001700090E0FC0110828AE290E02FEFFC012083E6
:100180008BE290E0FC0110829FDFB8DF882341F012
:1001900080E1C0DF88E290E021E0FC012083F5CF20
:0E01A00088E290E0FC011082F0CFF894FFCFCF
:00000001FF
